{
  "_format": "hh-sol-artifact-1",
  "contractName": "StakeToken",
  "sourceName": "contracts/StakeIt.sol",
  "abi": [
    {
      "inputs": [
        {
          "internalType": "address",
          "name": "_eduTokenAddress",
          "type": "address"
        },
        {
          "internalType": "uint256",
          "name": "_rewardRate",
          "type": "uint256"
        },
        {
          "internalType": "address",
          "name": "_owner",
          "type": "address"
        }
      ],
      "stateMutability": "nonpayable",
      "type": "constructor"
    },
    {
      "inputs": [
        {
          "internalType": "address",
          "name": "owner",
          "type": "address"
        }
      ],
      "name": "OwnableInvalidOwner",
      "type": "error"
    },
    {
      "inputs": [
        {
          "internalType": "address",
          "name": "account",
          "type": "address"
        }
      ],
      "name": "OwnableUnauthorizedAccount",
      "type": "error"
    },
    {
      "anonymous": false,
      "inputs": [
        {
          "indexed": true,
          "internalType": "address",
          "name": "previousOwner",
          "type": "address"
        },
        {
          "indexed": true,
          "internalType": "address",
          "name": "newOwner",
          "type": "address"
        }
      ],
      "name": "OwnershipTransferred",
      "type": "event"
    },
    {
      "inputs": [
        {
          "internalType": "address",
          "name": "_staker",
          "type": "address"
        }
      ],
      "name": "calculateRewards",
      "outputs": [
        {
          "internalType": "uint256",
          "name": "",
          "type": "uint256"
        }
      ],
      "stateMutability": "view",
      "type": "function"
    },
    {
      "inputs": [],
      "name": "eduToken",
      "outputs": [
        {
          "internalType": "contract IERC20",
          "name": "",
          "type": "address"
        }
      ],
      "stateMutability": "view",
      "type": "function"
    },
    {
      "inputs": [],
      "name": "owner",
      "outputs": [
        {
          "internalType": "address",
          "name": "",
          "type": "address"
        }
      ],
      "stateMutability": "view",
      "type": "function"
    },
    {
      "inputs": [],
      "name": "renounceOwnership",
      "outputs": [],
      "stateMutability": "nonpayable",
      "type": "function"
    },
    {
      "inputs": [],
      "name": "rewardRate",
      "outputs": [
        {
          "internalType": "uint256",
          "name": "",
          "type": "uint256"
        }
      ],
      "stateMutability": "view",
      "type": "function"
    },
    {
      "inputs": [
        {
          "internalType": "uint256",
          "name": "_newRate",
          "type": "uint256"
        }
      ],
      "name": "setRewardRate",
      "outputs": [],
      "stateMutability": "nonpayable",
      "type": "function"
    },
    {
      "inputs": [
        {
          "internalType": "uint256",
          "name": "_amount",
          "type": "uint256"
        }
      ],
      "name": "stake",
      "outputs": [],
      "stateMutability": "nonpayable",
      "type": "function"
    },
    {
      "inputs": [
        {
          "internalType": "address",
          "name": "",
          "type": "address"
        }
      ],
      "name": "stakes",
      "outputs": [
        {
          "internalType": "uint256",
          "name": "amount",
          "type": "uint256"
        },
        {
          "internalType": "uint256",
          "name": "timestamp",
          "type": "uint256"
        }
      ],
      "stateMutability": "view",
      "type": "function"
    },
    {
      "inputs": [
        {
          "internalType": "address",
          "name": "newOwner",
          "type": "address"
        }
      ],
      "name": "transferOwnership",
      "outputs": [],
      "stateMutability": "nonpayable",
      "type": "function"
    },
    {
      "inputs": [
        {
          "internalType": "uint256",
          "name": "_amount",
          "type": "uint256"
        }
      ],
      "name": "withdraw",
      "outputs": [],
      "stateMutability": "nonpayable",
      "type": "function"
    }
  ],
  "bytecode": "0x60806040523480156200001157600080fd5b506040516200122138038062001221833981810160405281019062000037919062000279565b80600073ffffffffffffffffffffffffffffffffffffffff168173ffffffffffffffffffffffffffffffffffffffff1603620000ad5760006040517f1e4fbdf7000000000000000000000000000000000000000000000000000000008152600401620000a49190620002e6565b60405180910390fd5b620000be816200011060201b60201c565b5082600160006101000a81548173ffffffffffffffffffffffffffffffffffffffff021916908373ffffffffffffffffffffffffffffffffffffffff1602179055508160038190555050505062000303565b60008060009054906101000a900473ffffffffffffffffffffffffffffffffffffffff169050816000806101000a81548173ffffffffffffffffffffffffffffffffffffffff021916908373ffffffffffffffffffffffffffffffffffffffff1602179055508173ffffffffffffffffffffffffffffffffffffffff168173ffffffffffffffffffffffffffffffffffffffff167f8be0079c531659141344cd1fd0a4f28419497f9722a3daafe3b4186f6b6457e060405160405180910390a35050565b600080fd5b600073ffffffffffffffffffffffffffffffffffffffff82169050919050565b60006200020682620001d9565b9050919050565b6200021881620001f9565b81146200022457600080fd5b50565b60008151905062000238816200020d565b92915050565b6000819050919050565b62000253816200023e565b81146200025f57600080fd5b50565b600081519050620002738162000248565b92915050565b600080600060608486031215620002955762000294620001d4565b5b6000620002a58682870162000227565b9350506020620002b88682870162000262565b9250506040620002cb8682870162000227565b9150509250925092565b620002e081620001f9565b82525050565b6000602082019050620002fd6000830184620002d5565b92915050565b610f0e80620003136000396000f3fe608060405234801561001057600080fd5b506004361061009e5760003560e01c80638d878889116100665780638d878889146101485780638da5cb5b146101665780639e447fc614610184578063a694fc3a146101a0578063f2fde38b146101bc5761009e565b806316934fc4146100a35780632e1a7d4d146100d457806364ab8675146100f0578063715018a6146101205780637b0a47ee1461012a575b600080fd5b6100bd60048036038101906100b891906109f2565b6101d8565b6040516100cb929190610a38565b60405180910390f35b6100ee60048036038101906100e99190610a8d565b6101fc565b005b61010a600480360381019061010591906109f2565b61046a565b6040516101179190610aba565b60405180910390f35b61012861050d565b005b610132610521565b60405161013f9190610aba565b60405180910390f35b610150610527565b60405161015d9190610b34565b60405180910390f35b61016e61054d565b60405161017b9190610b5e565b60405180910390f35b61019e60048036038101906101999190610a8d565b610576565b005b6101ba60048036038101906101b59190610a8d565b610588565b005b6101d660048036038101906101d191906109f2565b6107b6565b005b60026020528060005260406000206000915090508060000154908060010154905082565b80600260003373ffffffffffffffffffffffffffffffffffffffff1673ffffffffffffffffffffffffffffffffffffffff168152602001908152602001600020600001541015610281576040517f08c379a000000000000000000000000000000000000000000000000000000000815260040161027890610bd6565b60405180910390fd5b600061028c3361046a565b905080600260003373ffffffffffffffffffffffffffffffffffffffff1673ffffffffffffffffffffffffffffffffffffffff16815260200190815260200160002060000160008282546102e09190610c25565b9250508190555081600260003373ffffffffffffffffffffffffffffffffffffffff1673ffffffffffffffffffffffffffffffffffffffff16815260200190815260200160002060000160008282546103399190610c59565b9250508190555042600260003373ffffffffffffffffffffffffffffffffffffffff1673ffffffffffffffffffffffffffffffffffffffff16815260200190815260200160002060010181905550600160009054906101000a900473ffffffffffffffffffffffffffffffffffffffff1673ffffffffffffffffffffffffffffffffffffffff1663a9059cbb33846040518363ffffffff1660e01b81526004016103e4929190610c8d565b6020604051808303816000875af1158015610403573d6000803e3d6000fd5b505050506040513d601f19601f820116820180604052508101906104279190610cee565b610466576040517f08c379a000000000000000000000000000000000000000000000000000000000815260040161045d90610d67565b60405180910390fd5b5050565b600080600260008473ffffffffffffffffffffffffffffffffffffffff1673ffffffffffffffffffffffffffffffffffffffff16815260200190815260200160002060405180604001604052908160008201548152602001600182015481525050905060008160200151426104df9190610c59565b905060006003548360000151836104f69190610d87565b6105009190610d87565b9050809350505050919050565b61051561083c565b61051f60006108c3565b565b60035481565b600160009054906101000a900473ffffffffffffffffffffffffffffffffffffffff1681565b60008060009054906101000a900473ffffffffffffffffffffffffffffffffffffffff16905090565b61057e61083c565b8060038190555050565b600081116105cb576040517f08c379a00000000000000000000000000000000000000000000000000000000081526004016105c290610e15565b60405180910390fd5b60006105d63361046a565b905080600260003373ffffffffffffffffffffffffffffffffffffffff1673ffffffffffffffffffffffffffffffffffffffff168152602001908152602001600020600001600082825461062a9190610c25565b9250508190555081600260003373ffffffffffffffffffffffffffffffffffffffff1673ffffffffffffffffffffffffffffffffffffffff16815260200190815260200160002060000160008282546106839190610c25565b9250508190555042600260003373ffffffffffffffffffffffffffffffffffffffff1673ffffffffffffffffffffffffffffffffffffffff16815260200190815260200160002060010181905550600160009054906101000a900473ffffffffffffffffffffffffffffffffffffffff1673ffffffffffffffffffffffffffffffffffffffff166323b872dd3330856040518463ffffffff1660e01b815260040161073093929190610e35565b6020604051808303816000875af115801561074f573d6000803e3d6000fd5b505050506040513d601f19601f820116820180604052508101906107739190610cee565b6107b2576040517f08c379a00000000000000000000000000000000000000000000000000000000081526004016107a990610eb8565b60405180910390fd5b5050565b6107be61083c565b600073ffffffffffffffffffffffffffffffffffffffff168173ffffffffffffffffffffffffffffffffffffffff16036108305760006040517f1e4fbdf70000000000000000000000000000000000000000000000000000000081526004016108279190610b5e565b60405180910390fd5b610839816108c3565b50565b610844610987565b73ffffffffffffffffffffffffffffffffffffffff1661086261054d565b73ffffffffffffffffffffffffffffffffffffffff16146108c157610885610987565b6040517f118cdaa70000000000000000000000000000000000000000000000000000000081526004016108b89190610b5e565b60405180910390fd5b565b60008060009054906101000a900473ffffffffffffffffffffffffffffffffffffffff169050816000806101000a81548173ffffffffffffffffffffffffffffffffffffffff021916908373ffffffffffffffffffffffffffffffffffffffff1602179055508173ffffffffffffffffffffffffffffffffffffffff168173ffffffffffffffffffffffffffffffffffffffff167f8be0079c531659141344cd1fd0a4f28419497f9722a3daafe3b4186f6b6457e060405160405180910390a35050565b600033905090565b600080fd5b600073ffffffffffffffffffffffffffffffffffffffff82169050919050565b60006109bf82610994565b9050919050565b6109cf816109b4565b81146109da57600080fd5b50565b6000813590506109ec816109c6565b92915050565b600060208284031215610a0857610a0761098f565b5b6000610a16848285016109dd565b91505092915050565b6000819050919050565b610a3281610a1f565b82525050565b6000604082019050610a4d6000830185610a29565b610a5a6020830184610a29565b9392505050565b610a6a81610a1f565b8114610a7557600080fd5b50565b600081359050610a8781610a61565b92915050565b600060208284031215610aa357610aa261098f565b5b6000610ab184828501610a78565b91505092915050565b6000602082019050610acf6000830184610a29565b92915050565b6000819050919050565b6000610afa610af5610af084610994565b610ad5565b610994565b9050919050565b6000610b0c82610adf565b9050919050565b6000610b1e82610b01565b9050919050565b610b2e81610b13565b82525050565b6000602082019050610b496000830184610b25565b92915050565b610b58816109b4565b82525050565b6000602082019050610b736000830184610b4f565b92915050565b600082825260208201905092915050565b7f496e73756666696369656e742062616c616e636520746f207769746864726177600082015250565b6000610bc0602083610b79565b9150610bcb82610b8a565b602082019050919050565b60006020820190508181036000830152610bef81610bb3565b9050919050565b7f4e487b7100000000000000000000000000000000000000000000000000000000600052601160045260246000fd5b6000610c3082610a1f565b9150610c3b83610a1f565b9250828201905080821115610c5357610c52610bf6565b5b92915050565b6000610c6482610a1f565b9150610c6f83610a1f565b9250828203905081811115610c8757610c86610bf6565b5b92915050565b6000604082019050610ca26000830185610b4f565b610caf6020830184610a29565b9392505050565b60008115159050919050565b610ccb81610cb6565b8114610cd657600080fd5b50565b600081519050610ce881610cc2565b92915050565b600060208284031215610d0457610d0361098f565b5b6000610d1284828501610cd9565b91505092915050565b7f5472616e73666572206661696c65640000000000000000000000000000000000600082015250565b6000610d51600f83610b79565b9150610d5c82610d1b565b602082019050919050565b60006020820190508181036000830152610d8081610d44565b9050919050565b6000610d9282610a1f565b9150610d9d83610a1f565b9250828202610dab81610a1f565b91508282048414831517610dc257610dc1610bf6565b5b5092915050565b7f43616e6e6f74207374616b65203020746f6b656e730000000000000000000000600082015250565b6000610dff601583610b79565b9150610e0a82610dc9565b602082019050919050565b60006020820190508181036000830152610e2e81610df2565b9050919050565b6000606082019050610e4a6000830186610b4f565b610e576020830185610b4f565b610e646040830184610a29565b949350505050565b7f5472616e73666572204661696c65640000000000000000000000000000000000600082015250565b6000610ea2600f83610b79565b9150610ead82610e6c565b602082019050919050565b60006020820190508181036000830152610ed181610e95565b905091905056fea264697066735822122053e0ea4362fd6d51daf104f63c480ebde7d699a4ca9290d8e12286180fde296f64736f6c63430008130033",
  "linkReferences": {},
  "deployedLinkReferences": {}
}