{
  "_format": "hh-sol-artifact-1",
  "contractName": "StakeEduToken",
  "sourceName": "contracts/StakeLatest.sol",
  "abi": [
    {
      "inputs": [
        {
          "internalType": "address",
          "name": "_eduTokenAddress",
          "type": "address"
        },
        {
          "internalType": "uint256",
          "name": "_rewardRate",
          "type": "uint256"
        },
        {
          "internalType": "address",
          "name": "_owner",
          "type": "address"
        }
      ],
      "stateMutability": "nonpayable",
      "type": "constructor"
    },
    {
      "inputs": [
        {
          "internalType": "address",
          "name": "owner",
          "type": "address"
        }
      ],
      "name": "OwnableInvalidOwner",
      "type": "error"
    },
    {
      "inputs": [
        {
          "internalType": "address",
          "name": "account",
          "type": "address"
        }
      ],
      "name": "OwnableUnauthorizedAccount",
      "type": "error"
    },
    {
      "anonymous": false,
      "inputs": [
        {
          "indexed": true,
          "internalType": "address",
          "name": "previousOwner",
          "type": "address"
        },
        {
          "indexed": true,
          "internalType": "address",
          "name": "newOwner",
          "type": "address"
        }
      ],
      "name": "OwnershipTransferred",
      "type": "event"
    },
    {
      "inputs": [
        {
          "internalType": "address",
          "name": "_staker",
          "type": "address"
        }
      ],
      "name": "calculateRewards",
      "outputs": [
        {
          "internalType": "uint256",
          "name": "",
          "type": "uint256"
        }
      ],
      "stateMutability": "view",
      "type": "function"
    },
    {
      "inputs": [],
      "name": "eduToken",
      "outputs": [
        {
          "internalType": "contract IERC20",
          "name": "",
          "type": "address"
        }
      ],
      "stateMutability": "view",
      "type": "function"
    },
    {
      "inputs": [],
      "name": "owner",
      "outputs": [
        {
          "internalType": "address",
          "name": "",
          "type": "address"
        }
      ],
      "stateMutability": "view",
      "type": "function"
    },
    {
      "inputs": [],
      "name": "renounceOwnership",
      "outputs": [],
      "stateMutability": "nonpayable",
      "type": "function"
    },
    {
      "inputs": [],
      "name": "rewardRate",
      "outputs": [
        {
          "internalType": "uint256",
          "name": "",
          "type": "uint256"
        }
      ],
      "stateMutability": "view",
      "type": "function"
    },
    {
      "inputs": [
        {
          "internalType": "uint256",
          "name": "_newRate",
          "type": "uint256"
        }
      ],
      "name": "setRewardRate",
      "outputs": [],
      "stateMutability": "nonpayable",
      "type": "function"
    },
    {
      "inputs": [
        {
          "internalType": "uint256",
          "name": "_amount",
          "type": "uint256"
        }
      ],
      "name": "stake",
      "outputs": [],
      "stateMutability": "nonpayable",
      "type": "function"
    },
    {
      "inputs": [
        {
          "internalType": "address",
          "name": "",
          "type": "address"
        }
      ],
      "name": "stakes",
      "outputs": [
        {
          "internalType": "uint256",
          "name": "amount",
          "type": "uint256"
        },
        {
          "internalType": "uint256",
          "name": "timestamp",
          "type": "uint256"
        }
      ],
      "stateMutability": "view",
      "type": "function"
    },
    {
      "inputs": [
        {
          "internalType": "address",
          "name": "newOwner",
          "type": "address"
        }
      ],
      "name": "transferOwnership",
      "outputs": [],
      "stateMutability": "nonpayable",
      "type": "function"
    },
    {
      "inputs": [
        {
          "internalType": "uint256",
          "name": "_amount",
          "type": "uint256"
        }
      ],
      "name": "withdraw",
      "outputs": [],
      "stateMutability": "nonpayable",
      "type": "function"
    }
  ],
  "bytecode": "0x60806040523480156200001157600080fd5b506040516200163038038062001630833981810160405281019062000037919062000279565b80600073ffffffffffffffffffffffffffffffffffffffff168173ffffffffffffffffffffffffffffffffffffffff1603620000ad5760006040517f1e4fbdf7000000000000000000000000000000000000000000000000000000008152600401620000a49190620002e6565b60405180910390fd5b620000be816200011060201b60201c565b5082600160006101000a81548173ffffffffffffffffffffffffffffffffffffffff021916908373ffffffffffffffffffffffffffffffffffffffff1602179055508160038190555050505062000303565b60008060009054906101000a900473ffffffffffffffffffffffffffffffffffffffff169050816000806101000a81548173ffffffffffffffffffffffffffffffffffffffff021916908373ffffffffffffffffffffffffffffffffffffffff1602179055508173ffffffffffffffffffffffffffffffffffffffff168173ffffffffffffffffffffffffffffffffffffffff167f8be0079c531659141344cd1fd0a4f28419497f9722a3daafe3b4186f6b6457e060405160405180910390a35050565b600080fd5b600073ffffffffffffffffffffffffffffffffffffffff82169050919050565b60006200020682620001d9565b9050919050565b6200021881620001f9565b81146200022457600080fd5b50565b60008151905062000238816200020d565b92915050565b6000819050919050565b62000253816200023e565b81146200025f57600080fd5b50565b600081519050620002738162000248565b92915050565b600080600060608486031215620002955762000294620001d4565b5b6000620002a58682870162000227565b9350506020620002b88682870162000262565b9250506040620002cb8682870162000227565b9150509250925092565b620002e081620001f9565b82525050565b6000602082019050620002fd6000830184620002d5565b92915050565b61131d80620003136000396000f3fe608060405234801561001057600080fd5b506004361061009e5760003560e01c80638d878889116100665780638d878889146101485780638da5cb5b146101665780639e447fc614610184578063a694fc3a146101a0578063f2fde38b146101bc5761009e565b806316934fc4146100a35780632e1a7d4d146100d457806364ab8675146100f0578063715018a6146101205780637b0a47ee1461012a575b600080fd5b6100bd60048036038101906100b89190610c5d565b6101d8565b6040516100cb929190610ca3565b60405180910390f35b6100ee60048036038101906100e99190610cf8565b6101fc565b005b61010a60048036038101906101059190610c5d565b6104dc565b6040516101179190610d25565b60405180910390f35b61012861057e565b005b610132610592565b60405161013f9190610d25565b60405180910390f35b610150610598565b60405161015d9190610d9f565b60405180910390f35b61016e6105be565b60405161017b9190610dc9565b60405180910390f35b61019e60048036038101906101999190610cf8565b6105e7565b005b6101ba60048036038101906101b59190610cf8565b6105f9565b005b6101d660048036038101906101d19190610c5d565b6108e4565b005b60026020528060005260406000206000915090508060000154908060010154905082565b80600260003373ffffffffffffffffffffffffffffffffffffffff1673ffffffffffffffffffffffffffffffffffffffff168152602001908152602001600020600001541015610281576040517f08c379a000000000000000000000000000000000000000000000000000000000815260040161027890610e41565b60405180910390fd5b600061028c336104dc565b90506102da600260003373ffffffffffffffffffffffffffffffffffffffff1673ffffffffffffffffffffffffffffffffffffffff168152602001908152602001600020600001548261096a565b600260003373ffffffffffffffffffffffffffffffffffffffff1673ffffffffffffffffffffffffffffffffffffffff1681526020019081526020016000206000018190555061036c600260003373ffffffffffffffffffffffffffffffffffffffff1673ffffffffffffffffffffffffffffffffffffffff16815260200190815260200160002060000154836109c8565b600260003373ffffffffffffffffffffffffffffffffffffffff1673ffffffffffffffffffffffffffffffffffffffff1681526020019081526020016000206000018190555042600260003373ffffffffffffffffffffffffffffffffffffffff1673ffffffffffffffffffffffffffffffffffffffff16815260200190815260200160002060010181905550600160009054906101000a900473ffffffffffffffffffffffffffffffffffffffff1673ffffffffffffffffffffffffffffffffffffffff1663a9059cbb33846040518363ffffffff1660e01b8152600401610456929190610e61565b6020604051808303816000875af1158015610475573d6000803e3d6000fd5b505050506040513d601f19601f820116820180604052508101906104999190610ec2565b6104d8576040517f08c379a00000000000000000000000000000000000000000000000000000000081526004016104cf90610f3b565b60405180910390fd5b5050565b600080600260008473ffffffffffffffffffffffffffffffffffffffff1673ffffffffffffffffffffffffffffffffffffffff16815260200190815260200160002060405180604001604052908160008201548152602001600182015481525050905060008160200151426105519190610f8a565b90506000610563836000015183610a21565b905061057181600354610a21565b9050809350505050919050565b610586610aa7565b6105906000610b2e565b565b60035481565b600160009054906101000a900473ffffffffffffffffffffffffffffffffffffffff1681565b60008060009054906101000a900473ffffffffffffffffffffffffffffffffffffffff16905090565b6105ef610aa7565b8060038190555050565b6000811161063c576040517f08c379a00000000000000000000000000000000000000000000000000000000081526004016106339061100a565b60405180910390fd5b600160009054906101000a900473ffffffffffffffffffffffffffffffffffffffff1673ffffffffffffffffffffffffffffffffffffffff166323b872dd3330846040518463ffffffff1660e01b815260040161069b9392919061102a565b6020604051808303816000875af11580156106ba573d6000803e3d6000fd5b505050506040513d601f19601f820116820180604052508101906106de9190610ec2565b61071d576040517f08c379a0000000000000000000000000000000000000000000000000000000008152600401610714906110ad565b60405180910390fd5b600080600260003373ffffffffffffffffffffffffffffffffffffffff1673ffffffffffffffffffffffffffffffffffffffff16815260200190815260200160002060000154111561077557610772336104dc565b90505b6107c1600260003373ffffffffffffffffffffffffffffffffffffffff1673ffffffffffffffffffffffffffffffffffffffff168152602001908152602001600020600001548261096a565b600260003373ffffffffffffffffffffffffffffffffffffffff1673ffffffffffffffffffffffffffffffffffffffff16815260200190815260200160002060000181905550610853600260003373ffffffffffffffffffffffffffffffffffffffff1673ffffffffffffffffffffffffffffffffffffffff168152602001908152602001600020600001548361096a565b600260003373ffffffffffffffffffffffffffffffffffffffff1673ffffffffffffffffffffffffffffffffffffffff1681526020019081526020016000206000018190555042600260003373ffffffffffffffffffffffffffffffffffffffff1673ffffffffffffffffffffffffffffffffffffffff168152602001908152602001600020600101819055505050565b6108ec610aa7565b600073ffffffffffffffffffffffffffffffffffffffff168173ffffffffffffffffffffffffffffffffffffffff160361095e5760006040517f1e4fbdf70000000000000000000000000000000000000000000000000000000081526004016109559190610dc9565b60405180910390fd5b61096781610b2e565b50565b600080828461097991906110cd565b9050838110156109be576040517f08c379a00000000000000000000000000000000000000000000000000000000081526004016109b59061114d565b60405180910390fd5b8091505092915050565b600082821115610a0d576040517f08c379a0000000000000000000000000000000000000000000000000000000008152600401610a04906111b9565b60405180910390fd5b8183610a199190610f8a565b905092915050565b600080831480610a315750600082145b15610a3f5760009050610aa1565b60008284610a4d91906111d9565b9050828482610a5c919061124a565b14610a9c576040517f08c379a0000000000000000000000000000000000000000000000000000000008152600401610a93906112c7565b60405180910390fd5b809150505b92915050565b610aaf610bf2565b73ffffffffffffffffffffffffffffffffffffffff16610acd6105be565b73ffffffffffffffffffffffffffffffffffffffff1614610b2c57610af0610bf2565b6040517f118cdaa7000000000000000000000000000000000000000000000000000000008152600401610b239190610dc9565b60405180910390fd5b565b60008060009054906101000a900473ffffffffffffffffffffffffffffffffffffffff169050816000806101000a81548173ffffffffffffffffffffffffffffffffffffffff021916908373ffffffffffffffffffffffffffffffffffffffff1602179055508173ffffffffffffffffffffffffffffffffffffffff168173ffffffffffffffffffffffffffffffffffffffff167f8be0079c531659141344cd1fd0a4f28419497f9722a3daafe3b4186f6b6457e060405160405180910390a35050565b600033905090565b600080fd5b600073ffffffffffffffffffffffffffffffffffffffff82169050919050565b6000610c2a82610bff565b9050919050565b610c3a81610c1f565b8114610c4557600080fd5b50565b600081359050610c5781610c31565b92915050565b600060208284031215610c7357610c72610bfa565b5b6000610c8184828501610c48565b91505092915050565b6000819050919050565b610c9d81610c8a565b82525050565b6000604082019050610cb86000830185610c94565b610cc56020830184610c94565b9392505050565b610cd581610c8a565b8114610ce057600080fd5b50565b600081359050610cf281610ccc565b92915050565b600060208284031215610d0e57610d0d610bfa565b5b6000610d1c84828501610ce3565b91505092915050565b6000602082019050610d3a6000830184610c94565b92915050565b6000819050919050565b6000610d65610d60610d5b84610bff565b610d40565b610bff565b9050919050565b6000610d7782610d4a565b9050919050565b6000610d8982610d6c565b9050919050565b610d9981610d7e565b82525050565b6000602082019050610db46000830184610d90565b92915050565b610dc381610c1f565b82525050565b6000602082019050610dde6000830184610dba565b92915050565b600082825260208201905092915050565b7f496e73756666696369656e742062616c616e636520746f207769746864726177600082015250565b6000610e2b602083610de4565b9150610e3682610df5565b602082019050919050565b60006020820190508181036000830152610e5a81610e1e565b9050919050565b6000604082019050610e766000830185610dba565b610e836020830184610c94565b9392505050565b60008115159050919050565b610e9f81610e8a565b8114610eaa57600080fd5b50565b600081519050610ebc81610e96565b92915050565b600060208284031215610ed857610ed7610bfa565b5b6000610ee684828501610ead565b91505092915050565b7f5472616e73666572206661696c65640000000000000000000000000000000000600082015250565b6000610f25600f83610de4565b9150610f3082610eef565b602082019050919050565b60006020820190508181036000830152610f5481610f18565b9050919050565b7f4e487b7100000000000000000000000000000000000000000000000000000000600052601160045260246000fd5b6000610f9582610c8a565b9150610fa083610c8a565b9250828203905081811115610fb857610fb7610f5b565b5b92915050565b7f43616e6e6f74207374616b65203020746f6b656e730000000000000000000000600082015250565b6000610ff4601583610de4565b9150610fff82610fbe565b602082019050919050565b6000602082019050818103600083015261102381610fe7565b9050919050565b600060608201905061103f6000830186610dba565b61104c6020830185610dba565b6110596040830184610c94565b949350505050565b7f5472616e73666572204661696c65640000000000000000000000000000000000600082015250565b6000611097600f83610de4565b91506110a282611061565b602082019050919050565b600060208201905081810360008301526110c68161108a565b9050919050565b60006110d882610c8a565b91506110e383610c8a565b92508282019050808211156110fb576110fa610f5b565b5b92915050565b7f4164646974696f6e206f766572666c6f77000000000000000000000000000000600082015250565b6000611137601183610de4565b915061114282611101565b602082019050919050565b600060208201905081810360008301526111668161112a565b9050919050565b7f5375627472616374696f6e20756e646572666c6f770000000000000000000000600082015250565b60006111a3601583610de4565b91506111ae8261116d565b602082019050919050565b600060208201905081810360008301526111d281611196565b9050919050565b60006111e482610c8a565b91506111ef83610c8a565b92508282026111fd81610c8a565b9150828204841483151761121457611213610f5b565b5b5092915050565b7f4e487b7100000000000000000000000000000000000000000000000000000000600052601260045260246000fd5b600061125582610c8a565b915061126083610c8a565b9250826112705761126f61121b565b5b828204905092915050565b7f4d756c7469706c69636174696f6e206f766572666c6f77000000000000000000600082015250565b60006112b1601783610de4565b91506112bc8261127b565b602082019050919050565b600060208201905081810360008301526112e0816112a4565b905091905056fea26469706673582212202afaf1b5a6b18cb176205a5c21b802b12fbe8d257e71513a89c2e711a382208264736f6c63430008130033",
  "linkReferences": {},
  "deployedLinkReferences": {}
}